:100000000C942A000C9444020C9470020C949C02F0
:100010000C943C000C943C000C943C000C943C0070
:100020000C943C000C943C000C943C000C943C0060
:100030000C943C000C943C000C943C000C943C0050
:100040000C943C000C943C000C943C000C943C0040
:100050000C943C0011241FBECFE5D8E0DEBFCDBF1D
:1000600010E0A0E6B0E001C01D92A636B107E1F7AE
:100070000E943E000C94C8020C94000080E060E0F6
:1000800041E00E946F0083E062E00E9486010E94CE
:100090000D0281E590E060E00E943B020E940502B3
:1000A000FFCF80E060E00E94D00184E294EF0197EE
:1000B000F1F780E060E00E94D0010895813049F0BE
:1000C000813028F0823039F0833041F406C06ABBB9
:1000D000089567BB089564BB089561BB089581309E
:1000E00011F1813030F08230C1F1833009F069C004
:1000F0004EC0442359F02AB381E090E002C0880F3B
:10010000991F6A95E2F7282B2ABB0BC02AB381E01E
:1001100090E002C0880F991F6A95E2F780958223CC
:100120008ABB8AB30895442359F027B381E090E055
:1001300002C0880F991F6A95E2F7282B27BB0BC0D6
:1001400027B381E090E002C0880F991F6A95E2F71B
:100150008095822387BB87B30895442359F024B345
:1001600081E090E002C0880F991F6A95E2F7282B82
:1001700024BB0BC024B381E090E002C0880F991F1C
:100180006A95E2F78095822384BB84B30895442363
:1001900061F021B381E090E002C0880F991F6A9559
:1001A000E2F7282B21BB81B3089521B381E090E0D1
:1001B00002C0880F991F6A95E2F78095822381BB60
:1001C00081B30895813049F0813028F0823039F0D0
:1001D000833041F406C06BBB089568BB089565BBCE
:1001E000089562BB0895813011F1813030F0823082
:1001F000C1F1833009F069C04EC0442359F02BB3DC
:1002000081E090E002C0880F991F6A95E2F7282BE1
:100210002BBB0BC02BB381E090E002C0880F991F6D
:100220006A95E2F7809582238BBB8BB308954423B4
:1002300059F028B381E090E002C0880F991F6A95B9
:10024000E2F7282B28BB0BC028B381E090E002C066
:10025000880F991F6A95E2F78095822388BB88B33F
:100260000895442359F025B381E090E002C0880F3F
:10027000991F6A95E2F7282B25BB0BC025B381E0B7
:1002800090E002C0880F991F6A95E2F7809582235B
:1002900085BB85B30895442361F022B381E090E0EB
:1002A00002C0880F991F6A95E2F7282B22BB82B300
:1002B000089522B381E090E002C0880F991F6A95EB
:1002C000E2F78095822382BB82B30895813051F09A
:1002D000813030F0823041F0833079F080E0089551
:1002E00089B303C086B301C083B390E002C0959583
:1002F00087956A95E2F78170089580B390E002C017
:10030000959587956A95E2F7817008958130C1F0DF
:10031000813030F0823021F1833009F040C030C0AC
:100320003AB381E090E002C0880F991F6A95E2F726
:10033000282F209523232ABB2BB3822B8BBB089518
:1003400037B381E090E002C0880F991F6A95E2F709
:10035000282F2095232327BB28B3822B88BB089501
:1003600034B381E090E002C0880F991F6A95E2F7EC
:10037000282F2095232324BB25B3822B85BB0895EA
:1003800031B381E090E002C0880F991F6A95E2F7CF
:10039000282F2095232321BB22B3822B82BB0895D3
:1003A000813091F0813028F08230C9F0833061F5DE
:1003B00021C02BB381E090E002C0880F991F6A959D
:1003C000E2F728272BBB089528B381E090E002C014
:1003D000880F991F6A95E2F7282728BB089525B34F
:1003E00081E090E002C0880F991F6A95E2F7282704
:1003F00025BB089522B381E090E002C0880F991FC9
:100400006A95E2F7282722BB08958FB780688FBFCF
:1004100008958FB78F778FBF089585B78E7F85BF7B
:1004200085B7826085BF8BB780648BBF08958130AC
:1004300041F0813018F0823059F407C08BB78064E6
:1004400002C08BB780688BBF08958BB780628BBF6B
:100450000895813041F0813018F0823059F407C09E
:100460008BB78F7B02C08BB78F778BBF08958BB70D
:100470008F7D8BBF0895E62FF0E0EE0FFF1FE05A4F
:10048000FF4F9183808308951F920F920FB60F92B2
:1004900011242F933F934F935F936F937F938F9389
:1004A0009F93AF93BF93EF93FF93E0916000F09120
:1004B0006100309709F009958AB780648ABFFF917F
:1004C000EF91BF91AF919F918F917F916F915F91CC
:1004D0004F913F912F910F900FBE0F901F90189545
:1004E0001F920F920FB60F9211242F933F934F93A9
:1004F0005F936F937F938F939F93AF93BF93EF938C
:10050000FF93E0916200F0916300309709F0099544
:100510008AB780688ABFFF91EF91BF91AF919F9199
:100520008F917F916F915F914F913F912F910F909C
:100530000FBE0F901F9018951F920F920FB60F923B
:1005400011242F933F934F935F936F937F938F93D8
:100550009F93AF93BF93EF93FF93E0916400F0916B
:100560006500309709F009958AB780628ABFFF91CC
:10057000EF91BF91AF919F918F917F916F915F911B
:100580004F913F912F910F900FBE0F901F90189594
:04059000F894FFCF0D
:00000001FF
