:100000000C942A000C941A030C9446030C9472036B
:100010000C943C000C943C000C943C000C943C0070
:100020000C943C000C943C000C943C000C943C0060
:100030000C943C000C943C000C943C000C943C0050
:100040000C943C000C943C000C943C000C943C0040
:100050000C943C0011241FBECFE5D8E0DEBFCDBF1D
:1000600010E0A0E6B0E001C01D92A736B107E1F7AD
:100070000E94E7000C949E030C940000FF920F93E3
:100080001F93CF93DF9380916600813001F181301F
:1000900030F08230A1F1833009F07EC057C010E00B
:1000A000C0E5D3EC80916600882309F075C0612F0C
:1000B00041E00E94BA01CE010197F1F780E0612F83
:1000C00040E00E94BA011F5F183061F765C017E079
:1000D000C0E5D3EC80916600813009F05DC080E01E
:1000E000612F41E00E94BA01CE010197F1F780E053
:1000F000612F40E00E94BA01115060F74DC010E03E
:1001000097E0F92EC0E5D3EC0F2D011B809166001E
:10011000823009F041C080E0612F41E00E94BA01C5
:1001200080E0602F41E00E94BA01CE010197F1F713
:1001300080E0612F40E00E94BA0180E0602F40E043
:100140000E94BA011F5F1430F9F626C013E087E061
:10015000F82EC0E5D3EC0F2D011B80916600833093
:10016000D9F480E0612F41E00E94BA0180E0602F65
:1001700041E00E94BA01CE010197F1F780E0612FC2
:1001800040E00E94BA0180E0602F40E00E94BA0186
:10019000113011F01150DFCFDF91CF911F910F91EE
:1001A000FF900895809166008F5F83708093660052
:1001B00080E060E00E94A901089581E061E00E9472
:1001C0009702089581E060E00E949702089583E01D
:1001D00062E00E944D0283E063E00E944D0281E0F4
:1001E00062E00E944D0280E06FEF0E94250181E0F5
:1001F00060E041E00E94360181E061E041E00E9460
:10020000360182EE90E060E00E9411038DED90E0F7
:1002100061E00E94110382ED90E062E00E94110310
:100220000E94D4020E94CC0280E060E00E94A901FA
:1002300081E060E040E00E94BA0181E061E040E0DE
:100240000E94BA010E943E00FDCF813049F081300A
:1002500028F0823039F0833041F406C06ABB08953B
:1002600067BB089564BB089561BB0895813011F1A7
:10027000813030F08230C1F1833009F069C04EC066
:10028000442359F02AB381E090E002C0880F991FFF
:100290006A95E2F7282B2ABB0BC02AB381E090E0D5
:1002A00002C0880F991F6A95E2F7809582238ABB66
:1002B0008AB30895442359F027B381E090E002C047
:1002C000880F991F6A95E2F7282B27BB0BC027B32D
:1002D00081E090E002C0880F991F6A95E2F780954F
:1002E000822387BB87B30895442359F024B381E068
:1002F00090E002C0880F991F6A95E2F7282B24BB73
:100300000BC024B381E090E002C0880F991F6A956A
:10031000E2F78095822384BB84B30895442361F07F
:1003200021B381E090E002C0880F991F6A95E2F73F
:10033000282B21BB81B3089521B381E090E002C056
:10034000880F991F6A95E2F78095822381BB81B35C
:100350000895813049F0813028F0823039F08330BF
:1003600041F406C06BBB089568BB089565BB089552
:1003700062BB0895813011F1813030F08230C1F1DB
:10038000833009F069C04EC0442359F02BB381E09B
:1003900090E002C0880F991F6A95E2F7282B2BBBCB
:1003A0000BC02BB381E090E002C0880F991F6A95C3
:1003B000E2F7809582238BBB8BB30895442359F0D9
:1003C00028B381E090E002C0880F991F6A95E2F798
:1003D000282B28BB0BC028B381E090E002C0880F17
:1003E000991F6A95E2F78095822388BB88B30895A8
:1003F000442359F025B381E090E002C0880F991F93
:100400006A95E2F7282B25BB0BC025B381E090E06D
:1004100002C0880F991F6A95E2F78095822385BBF9
:1004200085B30895442361F022B381E090E002C0D7
:10043000880F991F6A95E2F7282B22BB82B3089593
:1004400022B381E090E002C0880F991F6A95E2F71D
:100450008095822382BB82B30895813051F0813030
:1004600030F0823041F0833079F080E0089589B334
:1004700003C086B301C083B390E002C09595879511
:100480006A95E2F78170089580B390E002C0959577
:1004900087956A95E2F7817008958130C1F08130C7
:1004A00030F0823021F1833009F040C030C03AB3DF
:1004B00081E090E002C0880F991F6A95E2F7282F2B
:1004C000209523232ABB2BB3822B8BBB089537B3F4
:1004D00081E090E002C0880F991F6A95E2F7282F0B
:1004E0002095232327BB28B3822B88BB089534B3E0
:1004F00081E090E002C0880F991F6A95E2F7282FEB
:100500002095232324BB25B3822B85BB089531B3CB
:1005100081E090E002C0880F991F6A95E2F7282FCA
:100520002095232321BB22B3822B82BB08958130E7
:1005300091F0813028F08230C9F0833061F521C01C
:100540002BB381E090E002C0880F991F6A95E2F713
:1005500028272BBB089528B381E090E002C0880FC4
:10056000991F6A95E2F7282728BB089525B381E0F3
:1005700090E002C0880F991F6A95E2F7282725BBF3
:10058000089522B381E090E002C0880F991F6A9518
:10059000E2F7282722BB08958FB780688FBF0895A0
:1005A0008FB78F778FBF089585B7816085BF85B777
:1005B0008D7F85BF8BB780648BBF85B7846085BF17
:1005C00085B7877F85BF8BB780688BBF84B78F7BEC
:1005D00084BF8BB780628BBF0895813041F081303A
:1005E00018F0823059F407C08BB7806402C08BB713
:1005F00080688BBF08958BB780628BBF0895813070
:1006000041F0813018F0823059F407C08BB78F7BEE
:1006100002C08BB78F778BBF08958BB78F7D8BBF51
:100620000895E62FF0E0EE0FFF1FE05AFF4F918391
:10063000808308951F920F920FB60F9211242F936B
:100640003F934F935F936F937F938F939F93AF935A
:10065000BF93EF93FF93E0916000F09161003097BA
:1006600009F009958AB780648ABFFF91EF91BF9125
:10067000AF919F918F917F916F915F914F913F913A
:100680002F910F900FBE0F901F9018951F920F92F1
:100690000FB60F9211242F933F934F935F936F9355
:1006A0007F938F939F93AF93BF93EF93FF93E091CB
:1006B0006200F0916300309709F009958AB780686D
:1006C0008ABFFF91EF91BF91AF919F918F917F91E1
:1006D0006F915F914F913F912F910F900FBE0F90AF
:1006E0001F9018951F920F920FB60F9211242F93FF
:1006F0003F934F935F936F937F938F939F93AF93AA
:10070000BF93EF93FF93E0916400F0916500309701
:1007100009F009958AB780628ABFFF91EF91BF9176
:10072000AF919F918F917F916F915F914F913F9189
:100730002F910F900FBE0F901F901895F894FFCF38
:00000001FF
