:100000000C942A000C943F000C943F000C943F0089
:100010000C943F000C943F000C943F000C943F0064
:100020000C943F000C943F000C943F000C943F0054
:100030000C943F000C943F000C943F000C943F0044
:100040000C943F000C943F000C943F000C943F0034
:100050000C943F0011241FBECFE5D8E0DEBFCDBF1A
:1000600011E0A0E6B0E0EEE9F6E202C005900D92E4
:10007000AA3BB107D9F70E9455000C944D130C947C
:1000800000000F931F93082F83E060E00E94B401EB
:1000900010E006C083E0612F41E00E94C5011F5FB0
:1000A0001017C0F31F910F910895CF92DF92EF9236
:1000B000FF920F931F9383E06FEF0E94300182E065
:1000C00067E041E00E94410182E066E041E00E9479
:1000D00041010E94D7020E94DC020E94280481E0B4
:1000E00061E00E94390380E00E94E002A0E0B0E0FD
:1000F000BC01CD010E94D01120E030E040EA50E484
:100100000E945E1220E030E048EC52E40E945E1251
:1001100020E030EC4FE754E40E943C110E94A4110F
:100120007B018C0180E690E00E941B04970140E077
:1001300050E060E070E080E090E00E9490038CE688
:1001400090E00E941B0489E2E816F10420F082E0AE
:1001500067E041E003C082E067E040E00E94C50143
:1001600081E00E94E002A0E0B0E0BC01CD010E946D
:10017000D01120E030E04AEF53E40E945E1220E00C
:1001800030EC4FE754E40E943C110E94A4117B0123
:100190008C0182E061E00E94390385E790E00E94D3
:1001A0001B04C70164E670E00E94C1129B0140E09D
:1001B00050E060E070E080E090E00E9490038FE704
:1001C00090E00E941B04C70164E670E00E94C11227
:1001D0009C0140E050E060E070E080E090E00E9430
:1001E000900381E890E00E941B048BEFE816F10475
:1001F00020F082E066E041E003C082E066E040E09B
:100200000E94C50182E00E94E002A0E0B0E0BC01D3
:10021000CD010E94D01120E030E04AEF53E40E946B
:100220005E1220E030EC4FE754E40E943C110E9443
:10023000A41180E090E00E94D01120E030E040E086
:1002400051E40E945E1220E030E04AEF53E40E9445
:100250003C110E94A411DC01CB010E9441003FCF60
:10026000813049F0813028F0823039F0833041F418
:1002700006C06ABB089567BB089564BB089561BB5F
:100280000895813011F1813030F08230C1F1833036
:1002900009F069C04EC0442359F02AB381E090E0D0
:1002A00002C0880F991F6A95E2F7282B2ABB0BC062
:1002B0002AB381E090E002C0880F991F6A95E2F7A7
:1002C000809582238ABB8AB30895442359F027B3CB
:1002D00081E090E002C0880F991F6A95E2F7282B11
:1002E00027BB0BC027B381E090E002C0880F991FA5
:1002F0006A95E2F78095822387BB87B308954423EC
:1003000059F024B381E090E002C0880F991F6A95EC
:10031000E2F7282B24BB0BC024B381E090E002C09D
:10032000880F991F6A95E2F78095822384BB84B376
:100330000895442361F021B381E090E002C0880F6A
:10034000991F6A95E2F7282B21BB81B3089521B349
:1003500081E090E002C0880F991F6A95E2F78095CE
:10036000822381BB81B30895813049F0813028F028
:10037000823039F0833041F406C06BBB089568BB0E
:10038000089565BB089562BB0895813011F18130F5
:1003900030F08230C1F1833009F069C04EC044238F
:1003A00059F02BB381E090E002C0880F991F6A9545
:1003B000E2F7282B2BBB0BC02BB381E090E002C0EF
:1003C000880F991F6A95E2F7809582238BBB8BB3C8
:1003D0000895442359F028B381E090E002C0880FCB
:1003E000991F6A95E2F7282B28BB0BC028B381E040
:1003F00090E002C0880F991F6A95E2F780958223EA
:1004000088BB88B30895442359F025B381E090E078
:1004100002C0880F991F6A95E2F7282B25BB0BC0F5
:1004200025B381E090E002C0880F991F6A95E2F73A
:100430008095822385BB85B30895442361F022B360
:1004400081E090E002C0880F991F6A95E2F7282B9F
:1004500022BB82B3089522B381E090E002C0880FEE
:10046000991F6A95E2F78095822382BB82B3089533
:10047000813051F0813030F0823041F0833079F0BA
:1004800080E0089589B303C086B301C083B390E0D0
:1004900002C0959587956A95E2F78170089580B3BB
:1004A00090E002C0959587956A95E2F7817008956E
:1004B0008130C1F0813030F0823021F1833009F099
:1004C00040C030C03AB381E090E002C0880F991F6D
:1004D0006A95E2F7282F209523232ABB2BB3822B82
:1004E0008BBB089537B381E090E002C0880F991F5D
:1004F0006A95E2F7282F2095232327BB28B3822B68
:1005000088BB089534B381E090E002C0880F991F42
:100510006A95E2F7282F2095232324BB25B3822B4D
:1005200085BB089531B381E090E002C0880F991F28
:100530006A95E2F7282F2095232321BB22B3822B33
:1005400082BB0895813091F0813028F08230C9F06B
:10055000833061F521C02BB381E090E002C0880FA9
:10056000991F6A95E2F728272BBB089528B381E0ED
:1005700090E002C0880F991F6A95E2F7282728BBF0
:10058000089525B381E090E002C0880F991F6A9515
:10059000E2F7282725BB089522B381E090E002C04E
:1005A000880F991F6A95E2F7282722BB089580E4F7
:1005B00087B987E086B90895379A089537980895DE
:1005C0003B983C988330C1F0843028F4813071F03E
:1005D000823080F409C08530A1F0853080F086300B
:1005E00099F08730B1F412C0389801C0389A399820
:1005F0003A980FC0389801C0389A399AF9CF38988C
:1006000001C0389A399804C0389801C0389A399A8C
:100610003A9A369A349BFECF349A24B135B1C90147
:1006200008950F931F93682F81E00E94B40182E028
:1006300060E040E00E94C50182E061E041E00E948C
:10064000C5010AEF10E0C8010197F1F782E061E00F
:1006500040E00E94C501C8010197F1F71F910F9179
:10066000089582E00E94110384EF91E00197F1F771
:100670000895615090E0019726E0880F991F2A9510
:10068000E1F7680F862F80680E94110380E18A9548
:10069000F1F7089581E00E94110384EF91E0019742
:1006A000F1F708950F931F93682F81E00E94B40122
:1006B00082E060E041E00E94C50182E061E041E04B
:1006C0000E94C5010AEF10E0C8010197F1F782E02E
:1006D00061E040E00E94C501C8010197F1F71F9158
:1006E0000F9108951F93CF93DF9380E40E9411032D
:1006F00080E18A95F1F7C9E8D0E010E189910E9484
:100700005203812F8A95F1F780E0C93BD807B1F7F2
:1007100081E061E00E943903DF91CF911F9108953C
:100720002F923F924F925F926F927F928F929F9201
:10073000AF92BF92CF92DF92EF92FF920F931F93EF
:10074000DF93CF93CDB7DEB767970FB6F894DEBFD0
:100750000FBECDBF922E832E1A012B013C011D8AA4
:100760002CC081E090E08C0F9D1FED898E0F911DB4
:100770009F8B8E8B292D382DA101B201C301EAE098
:10078000AE2EBB24CC24DD24EE24FF2400E010E0B8
:100790000E94CC0A205DEE89FF892083FD89FF5FDE
:1007A000FD8B292D382DA101B201C3010E945704F0
:1007B000922E832E1A012B013C01892D8829822932
:1007C0008329842985298629872959F62D89222379
:1007D00021F480E30E94520315C0FD88FA948F2D06
:1007E000992787FD90958E010F5F1F4F080F191FE6
:1007F00007C0F80180810E945203FA940150104012
:10080000F7FEF7CF67960FB6F894DEBF0FBECDBFE9
:10081000CF91DF911F910F91FF90EF90DF90CF90DC
:10082000BF90AF909F908F907F906F905F904F9010
:100830003F902F900895CF93DF93EC0103C0219652
:100840000E94520388818823D1F7DF91CF910895C8
:100850001F9381E06FEF0E94300182E060E041E091
:100860000E94410182E061E041E00E94410184ED8B
:1008700090E30197F1F78CE30E94110310E1812FBF
:100880008A95F1F78CE00E9411031A95F1F781E047
:100890000E94110384EF91E00197F1F786E00E9436
:1008A00011038AEF90E00197F1F71F910895AEE5EB
:1008B000B0E0EDE5F4E00C941613A8E04E010894C6
:1008C000811C911CF4016A2E11926A94E9F7298324
:1008D0003A834B835C836D837E838F839887CE01BD
:1008E0000996FC011192AA95E9F7A986BA86CB86EA
:1008F000DC86ED86FE860F87188B29843A844B842C
:100900005C84ED84FE840F85188969807A808B80F1
:100910009C806DA67EA68FA698AA6D807E808F8013
:100920009884E114F1040105110509F0B3C36214C0
:1009300073048404950408F03DC100E0201600E033
:10094000300601E0400600E0500688F41FEF211653
:1009500031044104510439F030F048E0E42EF12C28
:10096000012D112D18C0EE24FF24870114C020E0B2
:10097000221620E0320620E0420621E0520630F046
:1009800038E1E32EF12C012D112D05C020E1E22EDE
:10099000F12C012D112DD201C1010E2C04C0B695F0
:1009A000A795979587950A94D2F787549F4FDC01B6
:1009B0002C9180E290E0A0E0B0E08E199F09A00B9E
:1009C000B10B7C018D01E21AF10801091109E11452
:1009D000F10401051105A1F10E2C04C0220C331CF9
:1009E000441C551C0A94D2F7A40193010E2C04C098
:1009F000220F331F441F551F0A94D2F780E290E064
:100A00008E199F096DA47EA48FA498A804C0969403
:100A10008794779467948A95D2F7622A732A842AF6
:100A2000952AADA4BEA4CFA4D8A804C0AA0CBB1C10
:100A3000CC1CDD1CEA94D2F7ADA6BEA6CFA6D8AAE0
:100A40006201EE24FF24CDAADEAAEFAAF8AE92013D
:100A500081012070307009AF1AAF2BAF3CAFC401D9
:100A6000B301A70196010E94F4127B018C01C4011D
:100A7000B3012DA93EA94FA958AD0E94F412C90196
:100A8000DA013C014D01C401B30129AD3AAD4BADD2
:100A90005CAD0E94D5129B01AC018701FF24EE24BE
:100AA000ADA4BEA4CFA4D8A8C601AA27BB275701CE
:100AB0006801A82AB92ACA2ADB2AA216B306C406E4
:100AC000D506E0F408946108710881089108A20C29
:100AD000B31CC41CD51CA214B304C404D50470F008
:100AE000A216B306C406D50648F408946108710836
:100AF00081089108A20CB31CC41CD51CA21AB30A0D
:100B0000C40AD50AC601B5012DA93EA94FA958AD01
:100B10000E94F4127B018C01C601B5012DA93EA9EA
:100B20004FA958AD0E94F412C901DA015C016D01B0
:100B3000C601B50129AD3AAD4BAD5CAD0E94D512F1
:100B40009B01AC018701FF24EE248DA59EA5AFA5D6
:100B5000B8A9A070B070E82AF92A0A2B1B2BE2165C
:100B6000F30604071507C0F40894A108B108C108EA
:100B7000D108E20CF31C041D151DE214F304040556
:100B8000150550F0E216F3060407150728F408943B
:100B9000A108B108C108D108D30199278827860187
:100BA0007501E82AF92A0A2B1B2BE9AAFAAA0BAB32
:100BB0001CABCFC4211431044104510471F461E031
:100BC00070E080E090E020E030E040E050E00E9403
:100BD000F412C901DA011C012D0100E0201600E029
:100BE000300601E0400600E0500688F41FEF2116B1
:100BF00031044104510431F028F048E050E060E055
:100C000070E017C040E050E060E070E012C020E00B
:100C1000221620E0320620E0420621E0520628F0AB
:100C200048E150E060E070E004C040E150E060E086
:100C300070E0D201C101042E04C0B695A795979526
:100C400087950A94D2F787549F4FDC012C91E0E2FC
:100C5000EE2EF12C012D112DD801C701841B950B0F
:100C6000A60BB70B821B9109A109B1090097A10539
:100C7000B10561F464015301A218B308C408D50892
:100C800031E0632E712C812C912C1EC16F968FAF99
:100C90006F97082E04C0220C331C441C551C0A9468
:100CA000D2F7EE2DE81B640153010E2E04C0D6943A
:100CB000C794B794A7940A94D2F7A40193016F96AE
:100CC0000FAC6F9704C0220F331F441F551F0A94A7
:100CD000D2F76DA47EA48FA498A80E2E04C096947B
:100CE0008794779467940A94D2F784017301E22A77
:100CF000F32A042B152BE9A6FAA60BA71CA7320191
:100D000088249924920181012070307021960CAFC3
:100D10001DAF2EAF3FAF2197C601B501A4019301CE
:100D20000E94F4127B018C01C601B501A40193015C
:100D30000E94F412C901DA0125968CAF9DAFAEAFC7
:100D4000BFAF2597BC01CD0121962CAD3DAD4EAD79
:100D50005FAD21970E94D5129B01AC018701FF2452
:100D6000EE24A9A4BAA4CBA4DCA4C601AA27BB275D
:100D70005C016D01AE28BF28C02AD12AA216B30695
:100D8000C406D50660F525966CAD7DAD8EAD9FADE4
:100D90002597615070408040904025966CAF7DAFA4
:100DA0008EAF9FAF2597A20CB31CC41CD51CA214F8
:100DB000B304C404D50498F0A216B306C406D5063D
:100DC00070F4615070408040904025966CAF7DAFCC
:100DD0008EAF9FAF2597A20CB31CC41CD51CA21AC2
:100DE000B30AC40AD50AC601B501A40193010E9441
:100DF000F4127B018C01C601B501A40193010E948C
:100E0000F412C901DA013C014D01C401B30121967C
:100E10002CAD3DAD4EAD5FAD21970E94D5129B012B
:100E2000AC018701FF24EE2489A59AA5ABA5BCA53A
:100E3000A070B07057016801A82AB92ACA2ADB2A13
:100E4000A216B306C406D506E0F40894610871083A
:100E500081089108A20CB31CC41CD51CA214B304B5
:100E6000C404D50470F0A216B306C406D50648F42F
:100E700008946108710881089108A20CB31CC41C75
:100E8000D51C8DA59EA5AFA5B8A96F960FAC6F9781
:100E900004C0880F991FAA1FBB1F0A94D2F78DA701
:100EA0009EA7AFA7B8ABA21AB30AC40AD50A259663
:100EB000ECACFDAC0EAD1FAD2597D7019927882767
:100EC000682A792A8A2A9B2A82012227332729968F
:100ED0000CAF1DAF2EAF3FAF2997A201910140701B
:100EE00050702D962CAF3DAF4EAF5FAF2D97C60122
:100EF000B50129962CAD3DAD4EAD5FAD29970E9451
:100F0000F4127B018C01C601B50129962CAD3DADD3
:100F10004EAD5FAD29970E94F412C901DA016196C6
:100F20008CAF9DAFAEAFBFAF6197BC01CD012D9629
:100F30002CAD3DAD4EAD5FAD2D970E94D5129B01FE
:100F4000AC018701FF24EE24ADA4BEA4CFA4D8A891
:100F5000C601AA27BB2757016801A82AB92ACA2AAD
:100F6000DB2AA216B306C406D50660F561966CAD01
:100F70007DAD8EAD9FAD61976150704080409040D7
:100F800061966CAF7DAF8EAF9FAF6197A20CB31C23
:100F9000C41CD51CA214B304C404D50498F0A21632
:100FA000B306C406D50670F461507040804090408E
:100FB00061966CAF7DAF8EAF9FAF6197A20CB31CF3
:100FC000C41CD51CA21AB30AC40AD50AC601B501AD
:100FD00029962CAD3DAD4EAD5FAD29970E94F41220
:100FE0007B018C01C601B50129962CAD3DAD4EADFE
:100FF0005FAD29970E94F412C901DA015C016D010D
:10100000C601B5012D962CAD3DAD4EAD5FAD2D9712
:101010000E94D5129B01AC018701FF24EE248DA50F
:101020009EA5AFA5B8A9A070B070E82AF92A0A2B2E
:101030001B2BE216F30604071507C0F40894A10859
:10104000B108C108D108E20CF31C041D151DE214FF
:10105000F3040405150550F0E216F306040715071E
:1010600028F40894A108B108C108D1086196ECAC35
:10107000FDAC0EAD1FAD6197D7019927882796016A
:101080008501082B192B2A2B3B2B09AB1AAB2BAB59
:101090003CAB62C26E147F048006910608F451C214
:1010A00020E0E21620E0F20621E0020720E012072D
:1010B00088F43FEFE316F1040105110531F028F043
:1010C00048E050E060E070E017C040E050E060E0D1
:1010D00070E012C040E0E41640E0F40640E004078F
:1010E00041E0140728F048E150E060E070E004C0FF
:1010F00040E150E060E070E0D801C701042E04C078
:10110000B695A795979587950A94D2F787549F4FE0
:10111000DC012C9130E2A32EB12CC12CD12CD601B4
:10112000C501841B950BA60BB70B821B9109A10966
:10113000B1090097A105B10589F4E614F704080583
:10114000190508F4F2C16DA47EA48FA498A86214B6
:1011500073048404950408F0E8C1F3C16E968FAF60
:101160006E97082E04C0EE0CFF1C001F111F0A947E
:10117000D2F76A2D681BD201C101062E04C0B695B4
:10118000A795979587950A94D2F75C016D01AE28D3
:10119000BF28C02AD12AADA2BEA2CFA2D8A6720172
:1011A00061016E960FAC6E9704C0CC0CDD1CEE1C7A
:1011B000FF1C0A94D2F7C9A2DAA2EBA2FCA2640136
:1011C0005301062E04C0D694C794B794A7940A94EA
:1011D000D2F7D401C3016E960FAC6E9704C0880F8E
:1011E000991FAA1FBB1F0A94D2F7EDA4FEA40FA556
:1011F00018A904C016950795F794E7946A95D2F755
:1012000037014801682A792A8A2A9B2A6D8E7E8EA8
:101210008F8E98A2EDA0FEA00FA118A538018824FA
:101220009924980187012070307065960CAF1DAF2E
:101230002EAF3FAF6597C601B501A40193010E948F
:10124000F4127B018C01C601B501A40193010E9437
:10125000F412C901DA011C012D01C201B101659628
:101260002CAD3DAD4EAD5FAD65970E94D5129B0193
:10127000AC018701FF24EE24AD8CBE8CCF8CD8A0AE
:10128000C601AA27BB2757016801A82AB92ACA2A7A
:10129000DB2AA216B306C406D50600F50894210879
:1012A000310841085108EDA0FEA00FA118A5AE0C11
:1012B000BF1CC01ED11EAE14BF04C006D10670F004
:1012C000A216B306C406D50648F4089421083108CE
:1012D00041085108AE0CBF1CC01ED11EA21AB30A91
:1012E000C40AD50AC601B501A40193010E94F412F3
:1012F0007B018C01C601B501A40193010E94F41287
:10130000C901DA013C014D01C401B30165962CAD60
:101310003DAD4EAD5FAD65970E94D5129B01AC010E
:101320008701FF24EE248D8D9E8DAF8DB8A1A07016
:10133000B07057016801A82AB92ACA2ADB2AA21666
:10134000B306C406D50600F5089461087108810843
:1013500091086DA17EA18FA198A5A60EB71EC81EEB
:10136000D91EA616B706C806D90670F0A216B3068F
:10137000C406D50648F408946108710881089108EC
:10138000A60EB71EC81ED91ED601C501821B930B1F
:10139000A40BB50B898F9A8FAB8FBC8FD101992786
:1013A000882764015301A82AB92ACA2ADB2AA9AAD4
:1013B000BAAACBAADCAA860175012FEF3FEF40E065
:1013C00050E0E222F32204231523A60166277727A3
:1013D0006D964CAF5DAF6EAF7FAF6D97A9A0BAA011
:1013E000CBA0DCA06FEF7FEF80E090E0A622B722D9
:1013F000C822D92289A19AA1ABA1BCA11D01442474
:101400005524C801B701A60195010E94D51269961D
:101410006CAF7DAF8EAF9FAF6997C801B701A201D6
:1014200091010E94D5123B014C016D966CAD7DADD2
:101430008EAD9FAD6D97A60195010E94D5127B01DF
:101440008C016D966CAD7DAD8EAD9FAD6D97A2019B
:1014500091010E94D5125B016C01A8019701260D34
:10146000371D481D591D69966CAC7DAC8EAC9FAC88
:101470006997C401AA27BB27280F391F4A1F5B1F82
:101480002E153F054007510748F4E12CF12C61E08F
:10149000062F112DAE0CBF1CC01ED11ECA01AA27DB
:1014A000BB27BC01CD016A0D7B1D8C1D9D1D698C68
:1014B0007A8C8B8C9C8C661677068806990640F190
:1014C000661577058805990509F043C0D901992764
:1014D000882769962CAD3DAD4EAD5FAD69974070E4
:1014E0005070820F931FA41FB51F2DA53EA54FA5B9
:1014F00058A96E960FAC6E9704C0220F331F441F7D
:10150000551F0A94D2F7281739074A075B0708F5D1
:1015100009A91AA92BA93CA901501040204030402C
:1015200009AB1AAB2BAB3CAB14C066247724430148
:1015300021E030E040E050E029AB3AAB4BAB5CAB94
:101540000BC066247724430119AA1AAA1BAA1CAA55
:1015500003C0662477244301FE01719688E0DF0111
:101560001D928A95E9F7A9A8BAA8CBA8DCA8A98AF0
:10157000BA8ACB8ADC8A6D8A7E8A8F8A988E29A95C
:101580003A894B895C89662D7E898F89988DC25AEC
:10159000DF4FE2E10C943213ABE5B0E0E2EDFAE0AC
:1015A0000C941613A8E04E010894811C911CF401C0
:1015B0006A2E11926A94E9F729833A834B835C83FC
:1015C0006D837E838F839887CE010996FC011192EB
:1015D000AA95E9F7A986BA86CB86DC86ED86FE86D3
:1015E0000F87188B29843A844B845C84AD84BE8435
:1015F000CF84D88829813A814B815C8169962FAF4D
:1016000069976A963FAF6A976B964FAF6B976C96E8
:101610005FAF6C976C966CAC7DAC8EAC9FAC6C97EE
:1016200069AA7AAA8BAA9CAA6D817E818F819885EE
:101630003B014C016DAA7EAA8FAA98AEA114B104F9
:10164000C104D10409F004C3621473048404950432
:1016500008F000C100E0201600E0300601E040067E
:1016600000E0500688F41FEF2116310441045104B4
:1016700039F030F088E0E82EF12C012D112D18C042
:10168000EE24FF24870114C040E0241640E0340615
:1016900040E0440641E0540630F0B8E1EB2EF12C76
:1016A000012D112D05C0A0E1EA2EF12C012D112DE7
:1016B000D201C1010E2C04C0B695A79597958795C8
:1016C0000A94D2F787549F4FDC012C9180E290E07E
:1016D000A0E0B0E08E199F09A00BB10B5C016D0179
:1016E000A21AB108C108D108A9AEBAAECBAEDCAE21
:1016F000A114B104C104D10409F43FC069AD062EA0
:1017000004C0220C331C441C551C0A94D2F7A401BB
:101710009301062E04C0220F331F441F551F0A9445
:10172000D2F780E290E08A199B096C96CCACDDACD4
:10173000EEACFFAC6C9704C0F694E794D794C794D2
:101740008A95D2F787017601E22AF32A042B152B1A
:10175000EDAAFEAA0FAB18AF6C968CAD9DADAEADE9
:10176000BFAD6C9704C0880F991FAA1FBB1F6A9555
:10177000D2F789AB9AABABABBCAB320188249924CE
:10178000B201A1016070707021964CAF5DAF6EAF79
:101790007FAF21976DA97EA98FA998ADA401930170
:1017A0000E94F4127B018C016DA97EA98FA998ADCE
:1017B000A40193010E94F412CA01B90121962CAD33
:1017C0003DAD4EAD5FAD21970E94D5129B01AC019E
:1017D0008701FF24EE24A9A8BAA8CBA8DCA8C601DB
:1017E000AA27BB2757016801A82AB92ACA2ADB2AD7
:1017F000A216B306C406D50690F4A20CB31CC41CF2
:10180000D51CA214B304C404D50448F0A216B30630
:10181000C406D50620F4A20CB31CC41CD51CA21A05
:10182000B30AC40AD50AC601B501A40193010E94F6
:10183000F4127B018C01C601B501A40193010E9441
:10184000F412CA01B90121962CAD3DAD4EAD5FAD8C
:101850002197BAC1211431044104510471F461E0AB
:1018600070E080E090E020E030E040E050E00E9456
:10187000F412C901DA011C012D0100E0201600E07C
:10188000300601E0400600E0500688F41FEF211604
:1018900031044104510439F030F068E0E62EF12CB7
:1018A000012D112D18C0EE24FF24870114C040E043
:1018B000241640E0340640E0440641E0540630F08F
:1018C00058E1E52EF12C012D112D05C040E1E42E4B
:1018D000F12C012D112DD201C1010E2C04C0B695A1
:1018E000A795979587950A94D2F787549F4FDC0167
:1018F0002C9130E2A32EB12CC12CD12CD601C501E4
:101900008E199F09A00BB10B7C018D01E21AF10821
:1019100001091109E9AEFAAE0BAF1CAFE114F104F5
:101920000105110539F464015301A218B308C40874
:10193000D508E2C0F9AC6896FFAE68970F2C04C0DA
:10194000220C331C441C551C0A94D2F78A2D8F1983
:1019500064015301082E04C0D694C794B794A79489
:101960000A94D2F7A401930104C0220F331F441F2D
:10197000551FFA94D2F76C966CAC7DAC8EAC9FACD4
:101980006C9704C096948794779467948A95D2F75D
:1019900084017301E22AF32A042B152BEDA6FEA67F
:1019A0000FA718AB320188249924B201A1016070FD
:1019B000707025964CAF5DAF6EAF7FAF2597C601B7
:1019C000B501A40193010E94F4127B018C01C601B0
:1019D000B501A40193010E94F412CA01B901259630
:1019E0002CAD3DAD4EAD5FAD25970E94D5129B014C
:1019F000AC018701FF24EE24ADA4BEA4CFA4D8A8D7
:101A0000C601AA27BB275C016D01AE28BF28C02AEA
:101A1000D12AA216B306C406D50690F4A20CB31CB4
:101A2000C41CD51CA214B304C404D50448F0A216E7
:101A3000B306C406D50620F4A20CB31CC41CD51CE6
:101A4000A21AB30AC40AD50AC601B501A4019301BA
:101A50000E94F4127B018C01C601B501A40193011F
:101A60000E94F412CA01B90125962CAD3DAD4EADD0
:101A70005FAD25970E94D5129B01AC018701FF2421
:101A8000EE248DA59EA5AFA5B8A9A070B070570192
:101A90006801A82AB92ACA2ADB2AA216B306C406F4
:101AA000D50690F4A20CB31CC41CD51CA214B3041C
:101AB000C404D50448F0A216B306C406D50620F423
:101AC000A20CB31CC41CD51C6C96ECACFDAC0EADCA
:101AD0001FAD6C9768960FAC689704C0EE0CFF1CA6
:101AE000001F111F0A94D2F7E9AAFAAA0BAB1CAB8C
:101AF000A21AB30AC40AD50A320188249924B20171
:101B0000A1016070707029964CAF5DAF6EAF7FAF72
:101B10002997C601B501A40193010E94F4127B012B
:101B20008C01C601B501A40193010E94F412CA01FF
:101B3000B90129962CAD3DAD4EAD5FAD29970E9400
:101B4000D5129B01AC018701FF24EE24A9A8BAA8F5
:101B5000CBA8DCA8C601AA27BB2757016801A82A81
:101B6000B92ACA2ADB2AA216B306C406D50690F4FF
:101B7000A20CB31CC41CD51CA214B304C404D50409
:101B800048F0A216B306C406D50620F4A20CB31C76
:101B9000C41CD51CA21AB30AC40AD50AC601B501D1
:101BA000A40193010E94F4127B018C01C601B501CE
:101BB000A40193010E94F412CA01B90129962CAD27
:101BC0003DAD4EAD5FAD29970E94D5129B01AC0192
:101BD0008701FF24EE2489A99AA9ABA9BCA9A0700A
:101BE000B070E82AF92A0A2B1B2BE216F306040729
:101BF000150790F4E20CF31C041D151DE214F30408
:101C00000405150548F0E216F3060407150720F44D
:101C1000E20CF31C041D151DE21AF30A040B150B4C
:101C2000D801C70109AC04C0B695A79597958795CB
:101C30000A94D2F7898B9A8BAB8BBC8B1D8A1E8A38
:101C40001F8A188E282F3A894B895C896D890CC3AD
:101C50006A147B048C049D0408F409C300E0A016F8
:101C600000E0B00601E0C00600E0D00688F41FEFF7
:101C7000A116B104C104D10439F030F028E0E22EFD
:101C8000F12C012D112D18C0EE24FF24870114C062
:101C900040E0A41640E0B40640E0C40641E0D406AB
:101CA00030F098E1E92EF12C012D112D05C080E1D5
:101CB000E82EF12C012D112DD601C5010E2C04C0EA
:101CC000B695A795979587950A94D2F787549F4F15
:101CD000DC012C9180E290E0A0E0B0E08E199F0939
:101CE000A00BB10B821B9109A109B1090097A105B5
:101CF000B10509F04FC0A614B704C804D90458F0C0
:101D00006C96ECACFDAC0EAD1FAD6C97E214F30419
:101D10000405150568F16C96ECACFDAC0EAD1FAD7D
:101D20006C97E218F30804091509A40193012A1914
:101D30003B094C095D09AA24BB2465016C966CAD76
:101D40007DAD8EAD9FAD6C976E157F0580079107B9
:101D500028F4B1E0AB2EB12CC12CD12CDA01C90191
:101D60008A199B09AC09BD098DAB9EABAFABB8AF6F
:101D7000E98AFA8A0B8B1C8B6DA87EA88FA898AC79
:101D80006D8A7E8A8F8A988E2E2D3A894B895C893E
:101D90006DA96AC267968FAF6797A6019501082E55
:101DA00004C0220F331F441F551F0A94D2F7A0E22C
:101DB000AA2EA81A6696AFAE6697D201C10104C0DA
:101DC000B695A79597958795AA94D2F76C017D0152
:101DD000C22AD32AE42AF52AC9A6DAA6EBA6FCA6CB
:101DE0008201710167960FAC679704C0EE0CFF1C6F
:101DF000001F111F0A94D2F7EDA2FEA20FA318A78D
:101E00006401530166960FAC669704C0D694C794DC
:101E1000B794A7940A94D2F7A401930167960FACE4
:101E2000679704C0220F331F441F551F0A94D2F72F
:101E30006C968CAD9DADAEADBFAD6C9766960FAC9C
:101E4000669704C0B695A795979587950A94D2F79B
:101E50003C014D01622A732A842A952A69A27AA23A
:101E60008BA29CA26C96ECACFDAC0EAD1FAD6C973A
:101E700067960FAC679704C0EE0CFF1C001F111F84
:101E80000A94D2F7ED8EFE8E0F8F18A349A55AA59E
:101E90006BA57CA53B0188249924607070702D96F9
:101EA0004CAF5DAF6EAF7FAF2D97C601B501A401FA
:101EB00093010E94F4127B018C01C601B501A401BB
:101EC00093010E94F412C901DA011C012D01C20123
:101ED000B1012D962CAD3DAD4EAD5FAD2D970E945D
:101EE000D5129B01AC018701FF24EE24A9A0BAA062
:101EF000CBA0DCA0C601AA27BB2757016801A82AEE
:101F0000B92ACA2ADB2AA216B306C406D50600F5EA
:101F100008942108310841085108E9A4FAA40BA546
:101F20001CA5AE0CBF1CC01ED11EAE14BF04C00643
:101F3000D10670F0A216B306C406D50648F408947C
:101F40002108310841085108AE0CBF1CC01ED11E2B
:101F5000A21AB30AC40AD50AC601B501A4019301A5
:101F60000E94F4127B018C01C601B501A40193010A
:101F70000E94F412C901DA013C014D01C401B30110
:101F80002D962CAD3DAD4EAD5FAD2D970E94D51277
:101F90009B01AC018701FF24EE2489A19AA1ABA18A
:101FA000BCA1A070B07057016801A82AB92ACA2A3A
:101FB000DB2AA216B306C406D50600F5089461080C
:101FC00071088108910869A57AA58BA59CA5A60E24
:101FD000B71EC81ED91EA616B706C806D90670F0C9
:101FE000A216B306C406D50648F408946108710821
:101FF00081089108A60EB71EC81ED91ED601C501BC
:10200000821B930BA40BB50B898F9A8FAB8FBC8F60
:10201000D1019927882784017301E82AF92A0A2B1C
:102020001B2B4FEFA42E4FEFB42EC12CD12CAE2082
:10203000BF20C022D1227801002711276DA07EA0E9
:102040008FA098A44FEF5FEF60E070E064227522EC
:10205000862297228DA19EA1AFA1B8A5BD01882798
:10206000992765966CAF7DAF8EAF9FAF6597C60120
:10207000B501A40193010E94D51261966CAF7DAFAA
:102080008EAF9FAF6197C601B50165962CAD3DAD92
:102090004EAD5FAD65970E94D5121B012C01C801A2
:1020A000B701A40193010E94D5125B016C01C80124
:1020B000B70165962CAD3DAD4EAD5FAD65970E9405
:1020C000D5127B018C01A6019501220D331D441D03
:1020D000551D61966CAC7DAC8EAC9FAC6197C40114
:1020E000AA27BB27280F391F4A1F5B1F2A153B054C
:1020F0004C055D0548F4812C912CE1E0AE2EB12C0D
:10210000E80CF91C0A1D1B1DCA01AA27BB27570191
:102110006801A80EB91ECA1EDB1EA901332722279B
:1021200061968CAD9DADAEADBFAD6197A070B07046
:10213000280F391F4A1F5B1FE98CFA8C0B8D1C8DF1
:10214000EA14FB040C051D0570F0AE14BF04C006B4
:10215000D10669F56D8D7E8D8F8D98A162177307FD
:102160008407950720F5DA01C9016DA07EA08FA034
:1021700098A486199709A809B909E9A4FAA40BA596
:102180001CA5AE18BF08C00AD10AEE24FF2487019F
:10219000281739074A075B0728F421E0E22EF12CC3
:1021A000012D112DAE18BF08C00AD10A02C0DA01F4
:1021B000C9016D8C7E8C8F8C98A0681A790A8A0A66
:1021C0009B0A498D5A8D6B8D7C8D4A195B096C0970
:1021D0007D095A016B012224332421016D8D7E8DEE
:1021E0008F8D98A1661577058805990528F481E0FB
:1021F000282E312C412C512C86017501E218F30850
:1022000004091509A801970166960FAC669704C0EA
:10221000220F331F441F551F0A94D2F7D401C30164
:1022200067960FAC679704C0B695A7959795879565
:102230000A94D2F7282B392B4A2B5B2B298B3A8B0C
:102240004B8B5C8B67960FAC679704C01695079510
:10225000F794E7940A94D2F7ED8AFE8A0F8B188FD1
:102260003A894B895C896E2D7E898F89988DC55AF4
:10227000DF4FE2E10C9432130CD0E6C0DED040F028
:10228000D5D030F021F45F3F19F0C7C0511110C113
:10229000CAC0EBD098F39923C9F35523B1F3951B2A
:1022A000550BBB27AA2762177307840738F09F5F77
:1022B0005F4F220F331F441FAA1FA9F333D00E2EE6
:1022C0003AF0E0E830D091505040E695001CCAF753
:1022D00029D0FE2F27D0660F771F881FBB1F261718
:1022E00037074807AB07B0E809F0BB0B802DBF01EB
:1022F000FF2793585F4F2AF09E3F510568F08DC02D
:10230000D7C05F3FECF3983EDCF3869577956795F1
:10231000B795F7959F5FC9F7880F911D969587959B
:1023200097F90895E1E0660F771F881FBB1F6217BA
:1023300073078407BA0720F0621B730B840BBA0B78
:10234000EE1F88F7E095089598D088F09F5790F099
:10235000B92F9927B751A0F0D1F0660F771F881FCA
:10236000991F1AF0BA95C9F712C0B13081F09FD009
:10237000B1E008959CC0672F782F8827B85F39F0A7
:10238000B93FCCF3869577956795B395D9F73EF429
:1023900090958095709561957F4F8F4F9F4F0895D1
:1023A000E89409C097FB3EF49095809570956195EF
:1023B0007F4F8F4F9F4F9923A9F0F92F96E9BB27A5
:1023C0009395F695879577956795B795F111F8CF21
:1023D000FAF4BB0F11F460FF1BC06F5F7F4F8F4F8C
:1023E0009F4F16C0882311F096E911C0772321F082
:1023F0009EE8872F762F05C0662371F096E8862F1A
:1024000070E060E02AF09A95660F771F881FDAF770
:10241000880F9695879597F9089597F99F6780E8B3
:1024200070E060E008959FEF80EC089500240A9426
:102430001616170618060906089500240A9412169F
:102440001306140605060895092E0394000C11F4D2
:10245000882352F0BB0F40F4BF2B11F460FF04C07F
:102460006F5F7F4F8F4F9F4F089557FD9058440FD8
:10247000551F59F05F3F71F04795880F97FB991FE3
:1024800061F09F3F79F087950895121613061406A0
:10249000551FF2CF4695F1DF08C01616170618062D
:1024A000991FF1CF86957105610508940895E89408
:1024B000BB2766277727CB0197F908950BD0C4CFA8
:1024C000B5DF28F0BADF18F0952309F0A6CFABCF1F
:1024D0001124EECFCADFA0F3959FD1F3950F50E002
:1024E000551F629FF001729FBB27F00DB11D639FC6
:1024F000AA27F00DB11DAA1F649F6627B00DA11D6C
:10250000661F829F2227B00DA11D621F739FB00D11
:10251000A11D621F839FA00D611D221F749F332781
:10252000A00D611D231F849F600D211D822F762F1A
:102530006A2F11249F5750408AF0E1F088234AF017
:10254000EE0FFF1FBB1F661F771F881F9150504063
:10255000A9F79E3F510570F060CFAACF5F3FECF323
:10256000983EDCF3869577956795B795F795E7954F
:102570009F5FC1F7FE2B880F911D9695879597F960
:102580000895AA1BBB1B51E107C0AA1FBB1FA617BA
:10259000B70710F0A61BB70B881F991F5A95A9F70C
:1025A00080959095BC01CD010895629FD001739FE5
:1025B000F001829FE00DF11D649FE00DF11D929FDF
:1025C000F00D839FF00D749FF00D659FF00D99271E
:1025D000729FB00DE11DF91F639FB00DE11DF91F42
:1025E000BD01CF0111240895A1E21A2EAA1BBB1B25
:1025F000FD010DC0AA1FBB1FEE1FFF1FA217B307CF
:10260000E407F50720F0A21BB30BE40BF50B661FE4
:10261000771F881F991F1A9469F7609570958095A8
:1026200090959B01AC01BD01CF0108952F923F927F
:102630004F925F926F927F928F929F92AF92BF92D2
:10264000CF92DF92EF92FF920F931F93CF93DF937E
:10265000CDB7DEB7CA1BDB0B0FB6F894DEBF0FBEDB
:10266000CDBF09942A88398848885F846E847D8428
:102670008C849B84AA84B984C884DF80EE80FD802A
:102680000C811B81AA81B981CE0FD11D0FB6F894A0
:0E269000DEBF0FBECDBFED010895F894FFCF61
:10269E0054656D707261747572653D002043202023
:1026AE002020202000566F6C61746167653D002EFE
:1026BE000020562020202020000004000E011F00C4
:1026CE0000040404040407000002020202021E00B9
:1026DE000000000002020F00000000000002031CB8
:1026EE000000000009091F000A0001020203030393
:1026FE000304040404040404040505050505050586
:10270E000505050505050505050606060606060664
:10271E00060606060606060606060606060606064B
:10272E000606060606060606060707070707070734
:10273E00070707070707070707070707070707071B
:10274E00070707070707070707070707070707070B
:10275E0007070707070707070707070707070707FB
:10276E0007070707070707070708080808080808E4
:10277E0008080808080808080808080808080808CB
:10278E0008080808080808080808080808080808BB
:10279E0008080808080808080808080808080808AB
:1027AE00080808080808080808080808080808089B
:1027BE00080808080808080808080808080808088B
:1027CE00080808080808080808080808080808087B
:1027DE00080808080808080808080808080808086B
:0A27EE000808080808080808080099
:00000001FF
