:100000000C942A000C9434000C9434000C943400AA
:100010000C9434000C9434000C9434000C94340090
:100020000C9434000C9434000C9434000C94340080
:100030000C9434000C9434000C9434000C94340070
:100040000C9434000C9434000C9434000C94340060
:100050000C94340011241FBECFE5D8E0DEBFCDBF25
:100060000E94BB000C947A020C9400000F931F9323
:1000700080E06FEF0E948C0100E513ECC80101974E
:10008000F1F780E060E00E948C01C8010197F1F770
:100090001F910F910895FF920F931F93CF93DF93BA
:1000A00003E087E0F82EC0E5D3EC1F2D101B80E0A5
:1000B000602F41E00E949D0180E0612F41E00E949D
:1000C0009D01CE010197F1F780E0602F40E00E9492
:1000D0009D0180E0612F40E00E949D01015028F7C2
:1000E000DF91CF911F910F91FF900895FF920F9391
:1000F0001F93CF93DF9300E097E0F92EC0E5D3EC98
:100100001F2D101B80E0602F41E00E949D0180E0C8
:10011000612F41E00E949D01CE010197F1F780E03F
:10012000602F40E00E949D0180E0612F40E00E942E
:100130009D010F5F043021F7DF91CF911F910F9147
:10014000FF9008951F93CF93DF9317E0C0E5D3ECA2
:1001500080E0612F41E00E949D01CE010197F1F7FF
:1001600080E0612F40E00E949D01115088F7DF91EF
:10017000CF911F9108950F931F9380E06FEF0E941E
:10018000080181E060E00E94300281E061E00E94AD
:10019000300281E062E00E94300281E060E00E9473
:1001A0001002082F81E061E00E941002182F81E008
:1001B00062E00E941002112311F020E001C022E051
:1001C000882311F090E001C094E080E0002309F45E
:1001D00081E0822B892B823069F0833018F48130E2
:1001E00091F405C0833049F0843069F409C00E945D
:1001F0003600D3CF0E94A200D0CF0E947600CDCF90
:100200000E944B00CACF80E060E00E948C01C5CF05
:10021000813049F0813028F0823039F0833041F468
:1002200006C06ABB089567BB089564BB089561BBAF
:100230000895813011F1813030F08230C1F1833086
:1002400009F069C04EC0442359F02AB381E090E020
:1002500002C0880F991F6A95E2F7282B2ABB0BC0B2
:100260002AB381E090E002C0880F991F6A95E2F7F7
:10027000809582238ABB8AB30895442359F027B31B
:1002800081E090E002C0880F991F6A95E2F7282B61
:1002900027BB0BC027B381E090E002C0880F991FF5
:1002A0006A95E2F78095822387BB87B3089544233C
:1002B00059F024B381E090E002C0880F991F6A953D
:1002C000E2F7282B24BB0BC024B381E090E002C0EE
:1002D000880F991F6A95E2F78095822384BB84B3C7
:1002E0000895442361F021B381E090E002C0880FBB
:1002F000991F6A95E2F7282B21BB81B3089521B39A
:1003000081E090E002C0880F991F6A95E2F780951E
:10031000822381BB81B30895813049F0813028F078
:10032000823039F0833041F406C06BBB089568BB5E
:10033000089565BB089562BB0895813011F1813045
:1003400030F08230C1F1833009F069C04EC04423DF
:1003500059F02BB381E090E002C0880F991F6A9595
:10036000E2F7282B2BBB0BC02BB381E090E002C03F
:10037000880F991F6A95E2F7809582238BBB8BB318
:100380000895442359F028B381E090E002C0880F1B
:10039000991F6A95E2F7282B28BB0BC028B381E090
:1003A00090E002C0880F991F6A95E2F7809582233A
:1003B00088BB88B30895442359F025B381E090E0C9
:1003C00002C0880F991F6A95E2F7282B25BB0BC046
:1003D00025B381E090E002C0880F991F6A95E2F78B
:1003E0008095822385BB85B30895442361F022B3B1
:1003F00081E090E002C0880F991F6A95E2F7282BF0
:1004000022BB82B3089522B381E090E002C0880F3E
:10041000991F6A95E2F78095822382BB82B3089583
:10042000813051F0813030F0823041F0833079F00A
:1004300080E0089589B303C086B301C083B390E020
:1004400002C0959587956A95E2F78170089580B30B
:1004500090E002C0959587956A95E2F781700895BE
:100460008130C1F0813030F0823021F1833009F0E9
:1004700040C030C03AB381E090E002C0880F991FBD
:100480006A95E2F7282F209523232ABB2BB3822BD2
:100490008BBB089537B381E090E002C0880F991FAD
:1004A0006A95E2F7282F2095232327BB28B3822BB8
:1004B00088BB089534B381E090E002C0880F991F93
:1004C0006A95E2F7282F2095232324BB25B3822B9E
:1004D00085BB089531B381E090E002C0880F991F79
:1004E0006A95E2F7282F2095232321BB22B3822B84
:0804F00082BB0895F894FFCFD0
:00000001FF
