:100000000C942A000C943F000C943F000C943F0089
:100010000C943F000C943F000C943F000C943F0064
:100020000C943F000C943F000C943F000C943F0054
:100030000C943F000C943F000C943F000C943F0044
:100040000C943F000C943F000C943F000C943F0034
:100050000C943F0011241FBECFE5D8E0DEBFCDBF1A
:1000600010E0A0E6B0E0E0E9F4E002C005900D92F7
:10007000AA36B107D9F70E94AA000C9446020C9444
:100080000000DF92EF92FF920F931F93DF93CF93C5
:10009000CDB7DEB72A970FB6F894DEBF0FBECDBF3F
:1000A000D82EDE011196E0E6F0E08AE001900D9294
:1000B0008150E1F78D2D6AE00E943A028E010F5FB8
:1000C0001F4FF801E90FF11D82E060810E944C0191
:1000D00082E067E041E00E945D0182EEE82E84E06C
:1000E000F82EC7010197F1F78D2D6AE00E943A02C0
:1000F000080F111D82E0F80160810E944C0182E02E
:1001000067E040E00E945D01C7010197F1F72A9680
:100110000FB6F894DEBF0FBECDBFCF91DF911F9118
:100120000F91FF90EF90DF900895FF920F931F9330
:10013000F82E00E009C0802F0E9441001F5F12339B
:10014000D1F70F5FF01610F010E0F5CF1F910F916F
:10015000FF90089580E067E00E94C80082E06FEFA2
:100160000E94C80080E061E00E944C018EE10E9484
:10017000950080E062E00E944C0185E00E949500BD
:1001800080E064E00E944C018EE10E949500EACF7D
:10019000813049F0813028F0823039F0833041F4E9
:1001A00006C06ABB089567BB089564BB089561BB30
:1001B0000895813011F1813030F08230C1F1833007
:1001C00009F069C04EC0442359F02AB381E090E0A1
:1001D00002C0880F991F6A95E2F7282B2ABB0BC033
:1001E0002AB381E090E002C0880F991F6A95E2F778
:1001F000809582238ABB8AB30895442359F027B39C
:1002000081E090E002C0880F991F6A95E2F7282BE1
:1002100027BB0BC027B381E090E002C0880F991F75
:100220006A95E2F78095822387BB87B308954423BC
:1002300059F024B381E090E002C0880F991F6A95BD
:10024000E2F7282B24BB0BC024B381E090E002C06E
:10025000880F991F6A95E2F78095822384BB84B347
:100260000895442361F021B381E090E002C0880F3B
:10027000991F6A95E2F7282B21BB81B3089521B31A
:1002800081E090E002C0880F991F6A95E2F780959F
:10029000822381BB81B30895813049F0813028F0F9
:1002A000823039F0833041F406C06BBB089568BBDF
:1002B000089565BB089562BB0895813011F18130C6
:1002C00030F08230C1F1833009F069C04EC0442360
:1002D00059F02BB381E090E002C0880F991F6A9516
:1002E000E2F7282B2BBB0BC02BB381E090E002C0C0
:1002F000880F991F6A95E2F7809582238BBB8BB399
:100300000895442359F028B381E090E002C0880F9B
:10031000991F6A95E2F7282B28BB0BC028B381E010
:1003200090E002C0880F991F6A95E2F780958223BA
:1003300088BB88B30895442359F025B381E090E049
:1003400002C0880F991F6A95E2F7282B25BB0BC0C6
:1003500025B381E090E002C0880F991F6A95E2F70B
:100360008095822385BB85B30895442361F022B331
:1003700081E090E002C0880F991F6A95E2F7282B70
:1003800022BB82B3089522B381E090E002C0880FBF
:10039000991F6A95E2F78095822382BB82B3089504
:1003A000813051F0813030F0823041F0833079F08B
:1003B00080E0089589B303C086B301C083B390E0A1
:1003C00002C0959587956A95E2F78170089580B38C
:1003D00090E002C0959587956A95E2F7817008953F
:1003E0008130C1F0813030F0823021F1833009F06A
:1003F00040C030C03AB381E090E002C0880F991F3E
:100400006A95E2F7282F209523232ABB2BB3822B52
:100410008BBB089537B381E090E002C0880F991F2D
:100420006A95E2F7282F2095232327BB28B3822B38
:1004300088BB089534B381E090E002C0880F991F13
:100440006A95E2F7282F2095232324BB25B3822B1E
:1004500085BB089531B381E090E002C0880F991FF9
:100460006A95E2F7282F2095232321BB22B3822B04
:1004700082BB0895991B79E004C0991F961708F074
:10048000961B881F7A95C9F780950895F894FFCF39
:0A0490003F065B4F666D7D077F6F2E
:00000001FF
